:030000000200AF4C
:0C00AF00787FE4F6D8FD7581070200039D
:10006F00E4FDFCC3ED9FEC9E5015E4FBFA0BBB00C7
:0F007F00010AEB64704A70F50DBD00010C80E4BE
:01008E00224F
:10008F00C2917E08C292EF339290EF25E0FFD29299
:02009F00DEF28F
:0100A100223C
:0D00A200C29112008FAF0512008FD2912283
:10004E007DFF7F091200A27D037F0A1200A27D07A9
:10005E007F0B1200A27D017F0C1200A27F0F020007
:01006E00A2EF
:100003007F327E0012006F12004E7FD07E071200F7
:100013006FE4FD7F0F1200A27D087F011200A21D75
:100023007F021200A21D7F031200A21D7F04120093
:10003300A21D7F051200A21D7F061200A21D7F07CD
:0B0043001200A21D7F081200A280FE28
:00000001FF
